{
  "_format": "hh-sol-artifact-1",
  "contractName": "DynamicSvgNft",
  "sourceName": "contracts/DynamicSvgNft.sol",
  "abi": [
    {
      "inputs": [
        {
          "internalType": "address",
          "name": "priceFeedAddress",
          "type": "address"
        },
        {
          "internalType": "string",
          "name": "lowSvg",
          "type": "string"
        },
        {
          "internalType": "string",
          "name": "highSvg",
          "type": "string"
        }
      ],
      "stateMutability": "nonpayable",
      "type": "constructor"
    },
    {
      "anonymous": false,
      "inputs": [
        {
          "indexed": true,
          "internalType": "address",
          "name": "owner",
          "type": "address"
        },
        {
          "indexed": true,
          "internalType": "address",
          "name": "approved",
          "type": "address"
        },
        {
          "indexed": true,
          "internalType": "uint256",
          "name": "tokenId",
          "type": "uint256"
        }
      ],
      "name": "Approval",
      "type": "event"
    },
    {
      "anonymous": false,
      "inputs": [
        {
          "indexed": true,
          "internalType": "address",
          "name": "owner",
          "type": "address"
        },
        {
          "indexed": true,
          "internalType": "address",
          "name": "operator",
          "type": "address"
        },
        {
          "indexed": false,
          "internalType": "bool",
          "name": "approved",
          "type": "bool"
        }
      ],
      "name": "ApprovalForAll",
      "type": "event"
    },
    {
      "anonymous": false,
      "inputs": [
        {
          "indexed": true,
          "internalType": "uint256",
          "name": "tokenId",
          "type": "uint256"
        },
        {
          "indexed": false,
          "internalType": "int256",
          "name": "highValue",
          "type": "int256"
        }
      ],
      "name": "CreatedNFT",
      "type": "event"
    },
    {
      "anonymous": false,
      "inputs": [
        {
          "indexed": true,
          "internalType": "address",
          "name": "from",
          "type": "address"
        },
        {
          "indexed": true,
          "internalType": "address",
          "name": "to",
          "type": "address"
        },
        {
          "indexed": true,
          "internalType": "uint256",
          "name": "tokenId",
          "type": "uint256"
        }
      ],
      "name": "Transfer",
      "type": "event"
    },
    {
      "inputs": [
        {
          "internalType": "address",
          "name": "to",
          "type": "address"
        },
        {
          "internalType": "uint256",
          "name": "tokenId",
          "type": "uint256"
        }
      ],
      "name": "approve",
      "outputs": [],
      "stateMutability": "nonpayable",
      "type": "function"
    },
    {
      "inputs": [
        {
          "internalType": "address",
          "name": "owner",
          "type": "address"
        }
      ],
      "name": "balanceOf",
      "outputs": [
        {
          "internalType": "uint256",
          "name": "",
          "type": "uint256"
        }
      ],
      "stateMutability": "view",
      "type": "function"
    },
    {
      "inputs": [
        {
          "internalType": "uint256",
          "name": "tokenId",
          "type": "uint256"
        }
      ],
      "name": "getApproved",
      "outputs": [
        {
          "internalType": "address",
          "name": "",
          "type": "address"
        }
      ],
      "stateMutability": "view",
      "type": "function"
    },
    {
      "inputs": [],
      "name": "getHighSVG",
      "outputs": [
        {
          "internalType": "string",
          "name": "",
          "type": "string"
        }
      ],
      "stateMutability": "view",
      "type": "function"
    },
    {
      "inputs": [],
      "name": "getLowSVG",
      "outputs": [
        {
          "internalType": "string",
          "name": "",
          "type": "string"
        }
      ],
      "stateMutability": "view",
      "type": "function"
    },
    {
      "inputs": [],
      "name": "getPriceFeed",
      "outputs": [
        {
          "internalType": "contract AggregatorV3Interface",
          "name": "",
          "type": "address"
        }
      ],
      "stateMutability": "view",
      "type": "function"
    },
    {
      "inputs": [],
      "name": "getTokenCounter",
      "outputs": [
        {
          "internalType": "uint256",
          "name": "",
          "type": "uint256"
        }
      ],
      "stateMutability": "view",
      "type": "function"
    },
    {
      "inputs": [
        {
          "internalType": "address",
          "name": "owner",
          "type": "address"
        },
        {
          "internalType": "address",
          "name": "operator",
          "type": "address"
        }
      ],
      "name": "isApprovedForAll",
      "outputs": [
        {
          "internalType": "bool",
          "name": "",
          "type": "bool"
        }
      ],
      "stateMutability": "view",
      "type": "function"
    },
    {
      "inputs": [
        {
          "internalType": "int256",
          "name": "highValue",
          "type": "int256"
        }
      ],
      "name": "mintNft",
      "outputs": [],
      "stateMutability": "nonpayable",
      "type": "function"
    },
    {
      "inputs": [],
      "name": "name",
      "outputs": [
        {
          "internalType": "string",
          "name": "",
          "type": "string"
        }
      ],
      "stateMutability": "view",
      "type": "function"
    },
    {
      "inputs": [
        {
          "internalType": "uint256",
          "name": "tokenId",
          "type": "uint256"
        }
      ],
      "name": "ownerOf",
      "outputs": [
        {
          "internalType": "address",
          "name": "",
          "type": "address"
        }
      ],
      "stateMutability": "view",
      "type": "function"
    },
    {
      "inputs": [
        {
          "internalType": "address",
          "name": "from",
          "type": "address"
        },
        {
          "internalType": "address",
          "name": "to",
          "type": "address"
        },
        {
          "internalType": "uint256",
          "name": "tokenId",
          "type": "uint256"
        }
      ],
      "name": "safeTransferFrom",
      "outputs": [],
      "stateMutability": "nonpayable",
      "type": "function"
    },
    {
      "inputs": [
        {
          "internalType": "address",
          "name": "from",
          "type": "address"
        },
        {
          "internalType": "address",
          "name": "to",
          "type": "address"
        },
        {
          "internalType": "uint256",
          "name": "tokenId",
          "type": "uint256"
        },
        {
          "internalType": "bytes",
          "name": "data",
          "type": "bytes"
        }
      ],
      "name": "safeTransferFrom",
      "outputs": [],
      "stateMutability": "nonpayable",
      "type": "function"
    },
    {
      "inputs": [
        {
          "internalType": "address",
          "name": "operator",
          "type": "address"
        },
        {
          "internalType": "bool",
          "name": "approved",
          "type": "bool"
        }
      ],
      "name": "setApprovalForAll",
      "outputs": [],
      "stateMutability": "nonpayable",
      "type": "function"
    },
    {
      "inputs": [
        {
          "internalType": "bytes4",
          "name": "interfaceId",
          "type": "bytes4"
        }
      ],
      "name": "supportsInterface",
      "outputs": [
        {
          "internalType": "bool",
          "name": "",
          "type": "bool"
        }
      ],
      "stateMutability": "view",
      "type": "function"
    },
    {
      "inputs": [
        {
          "internalType": "string",
          "name": "svg",
          "type": "string"
        }
      ],
      "name": "svgToImageURI",
      "outputs": [
        {
          "internalType": "string",
          "name": "",
          "type": "string"
        }
      ],
      "stateMutability": "pure",
      "type": "function"
    },
    {
      "inputs": [],
      "name": "symbol",
      "outputs": [
        {
          "internalType": "string",
          "name": "",
          "type": "string"
        }
      ],
      "stateMutability": "view",
      "type": "function"
    },
    {
      "inputs": [
        {
          "internalType": "uint256",
          "name": "tokenId",
          "type": "uint256"
        }
      ],
      "name": "tokenURI",
      "outputs": [
        {
          "internalType": "string",
          "name": "",
          "type": "string"
        }
      ],
      "stateMutability": "view",
      "type": "function"
    },
    {
      "inputs": [
        {
          "internalType": "address",
          "name": "from",
          "type": "address"
        },
        {
          "internalType": "address",
          "name": "to",
          "type": "address"
        },
        {
          "internalType": "uint256",
          "name": "tokenId",
          "type": "uint256"
        }
      ],
      "name": "transferFrom",
      "outputs": [],
      "stateMutability": "nonpayable",
      "type": "function"
    }
  ],
  "bytecode": "0x60a06040523480156200001157600080fd5b5060405162003a6d38038062003a6d8339818101604052810190620000379190620006a9565b6040518060400160405280600f81526020017f44796e616d696320535647204e465400000000000000000000000000000000008152506040518060400160405280600381526020017f44534e00000000000000000000000000000000000000000000000000000000008152508160009080519060200190620000bb929190620003f7565b508060019080519060200190620000d4929190620003f7565b5050506000600681905550620000f0826200017160201b60201c565b6007908051906020019062000107929190620003f7565b5062000119816200017160201b60201c565b6008908051906020019062000130929190620003f7565b508273ffffffffffffffffffffffffffffffffffffffff1660808173ffffffffffffffffffffffffffffffffffffffff1660601b8152505050505062000994565b60606000620001ac836040516020016200018c919062000790565b6040516020818303038152906040526200026960201b62000f681760201c565b90506040518060400160405280601a81526020017f646174613a696d6167652f7376672b786d6c3b6261736536342c00000000000081525081604051602001620001f8929190620007a9565b604051602081830303815290604052506040518060400160405280601a81526020017f646174613a696d6167652f7376672b786d6c3b6261736536342c0000000000008152508160405160200162000252929190620007a9565b604051602081830303815290604052915050919050565b60606000825114156200028e57604051806020016040528060008152509050620003f2565b600060405180606001604052806040815260200162003a2d6040913990506000600360028551620002c091906200080a565b620002cc919062000896565b6004620002da9190620008ce565b90506000602082620002ed91906200080a565b67ffffffffffffffff8111156200030957620003086200053b565b5b6040519080825280601f01601f1916602001820160405280156200033c5781602001600182028036833780820191505090505b509050818152600183018586518101602084015b81831015620003ad576003830192508251603f8160121c168501518253600182019150603f81600c1c168501518253600182019150603f8160061c168501518253600182019150603f811685015182536001820191505062000350565b600389510660018114620003ca5760028114620003db57620003e6565b613d3d60f01b6002830352620003e6565b603d60f81b60018303525b50505050508093505050505b919050565b82805462000405906200095e565b90600052602060002090601f01602090048101928262000429576000855562000475565b82601f106200044457805160ff191683800117855562000475565b8280016001018555821562000475579182015b828111156200047457825182559160200191906001019062000457565b5b50905062000484919062000488565b5090565b5b80821115620004a357600081600090555060010162000489565b5090565b6000604051905090565b600080fd5b600080fd5b600073ffffffffffffffffffffffffffffffffffffffff82169050919050565b6000620004e882620004bb565b9050919050565b620004fa81620004db565b81146200050657600080fd5b50565b6000815190506200051a81620004ef565b92915050565b600080fd5b600080fd5b6000601f19601f8301169050919050565b7f4e487b7100000000000000000000000000000000000000000000000000000000600052604160045260246000fd5b62000575826200052a565b810181811067ffffffffffffffff821117156200059757620005966200053b565b5b80604052505050565b6000620005ac620004a7565b9050620005ba82826200056a565b919050565b600067ffffffffffffffff821115620005dd57620005dc6200053b565b5b620005e8826200052a565b9050602081019050919050565b60005b8381101562000615578082015181840152602081019050620005f8565b8381111562000625576000848401525b50505050565b6000620006426200063c84620005bf565b620005a0565b90508281526020810184848401111562000661576200066062000525565b5b6200066e848285620005f5565b509392505050565b600082601f8301126200068e576200068d62000520565b5b8151620006a08482602086016200062b565b91505092915050565b600080600060608486031215620006c557620006c4620004b1565b5b6000620006d58682870162000509565b935050602084015167ffffffffffffffff811115620006f957620006f8620004b6565b5b620007078682870162000676565b925050604084015167ffffffffffffffff8111156200072b576200072a620004b6565b5b620007398682870162000676565b9150509250925092565b600081519050919050565b600081905092915050565b6000620007668262000743565b6200077281856200074e565b935062000784818560208601620005f5565b80840191505092915050565b60006200079e828462000759565b915081905092915050565b6000620007b7828562000759565b9150620007c5828462000759565b91508190509392505050565b6000819050919050565b7f4e487b7100000000000000000000000000000000000000000000000000000000600052601160045260246000fd5b60006200081782620007d1565b91506200082483620007d1565b9250827fffffffffffffffffffffffffffffffffffffffffffffffffffffffffffffffff038211156200085c576200085b620007db565b5b828201905092915050565b7f4e487b7100000000000000000000000000000000000000000000000000000000600052601260045260246000fd5b6000620008a382620007d1565b9150620008b083620007d1565b925082620008c357620008c262000867565b5b828204905092915050565b6000620008db82620007d1565b9150620008e883620007d1565b9250817fffffffffffffffffffffffffffffffffffffffffffffffffffffffffffffffff0483118215151615620009245762000923620007db565b5b828202905092915050565b7f4e487b7100000000000000000000000000000000000000000000000000000000600052602260045260246000fd5b600060028204905060018216806200097757607f821691505b602082108114156200098e576200098d6200092f565b5b50919050565b60805160601c613073620009ba60003960008181610b1d0152610c0701526130736000f3fe608060405234801561001057600080fd5b50600436106101215760003560e01c80636e02007d116100ad578063a22cb46511610071578063a22cb4651461031c578063b88d4fde14610338578063c87b56dd14610354578063e985e9c514610384578063ed28a122146103b457610121565b80636e02007d1461027457806370a082311461029257806376f6056b146102c257806395d89b41146102e05780639e87a5cd146102fe57610121565b80631e930812116100f45780631e930812146101c057806323b872dd146101dc57806330d871c6146101f857806342842e0e146102285780636352211e1461024457610121565b806301ffc9a71461012657806306fdde0314610156578063081812fc14610174578063095ea7b3146101a4575b600080fd5b610140600480360381019061013b9190611c48565b6103d2565b60405161014d9190611c90565b60405180910390f35b61015e6104b4565b60405161016b9190611d44565b60405180910390f35b61018e60048036038101906101899190611d9c565b610546565b60405161019b9190611e0a565b60405180910390f35b6101be60048036038101906101b99190611e51565b61058c565b005b6101da60048036038101906101d59190611ec7565b6106a4565b005b6101f660048036038101906101f19190611ef4565b61071c565b005b610212600480360381019061020d919061207c565b61077c565b60405161021f9190611d44565b60405180910390f35b610242600480360381019061023d9190611ef4565b610861565b005b61025e60048036038101906102599190611d9c565b610881565b60405161026b9190611e0a565b60405180910390f35b61027c610933565b60405161028991906120d4565b60405180910390f35b6102ac60048036038101906102a791906120ef565b61093d565b6040516102b991906120d4565b60405180910390f35b6102ca6109f5565b6040516102d79190611d44565b60405180910390f35b6102e8610a87565b6040516102f59190611d44565b60405180910390f35b610306610b19565b604051610313919061217b565b60405180910390f35b610336600480360381019061033191906121c2565b610b41565b005b610352600480360381019061034d91906122a3565b610b57565b005b61036e60048036038101906103699190611d9c565b610bb9565b60405161037b9190611d44565b60405180910390f35b61039e60048036038101906103999190612326565b610e42565b6040516103ab9190611c90565b60405180910390f35b6103bc610ed6565b6040516103c99190611d44565b60405180910390f35b60007f80ac58cd000000000000000000000000000000000000000000000000000000007bffffffffffffffffffffffffffffffffffffffffffffffffffffffff1916827bffffffffffffffffffffffffffffffffffffffffffffffffffffffff1916148061049d57507f5b5e139f000000000000000000000000000000000000000000000000000000007bffffffffffffffffffffffffffffffffffffffffffffffffffffffff1916827bffffffffffffffffffffffffffffffffffffffffffffffffffffffff1916145b806104ad57506104ac826110e1565b5b9050919050565b6060600080546104c390612395565b80601f01602080910402602001604051908101604052809291908181526020018280546104ef90612395565b801561053c5780601f106105115761010080835404028352916020019161053c565b820191906000526020600020905b81548152906001019060200180831161051f57829003601f168201915b5050505050905090565b60006105518261114b565b6004600083815260200190815260200160002060009054906101000a900473ffffffffffffffffffffffffffffffffffffffff169050919050565b600061059782610881565b90508073ffffffffffffffffffffffffffffffffffffffff168373ffffffffffffffffffffffffffffffffffffffff161415610608576040517f08c379a00000000000000000000000000000000000000000000000000000000081526004016105ff90612439565b60405180910390fd5b8073ffffffffffffffffffffffffffffffffffffffff16610627611196565b73ffffffffffffffffffffffffffffffffffffffff161480610656575061065581610650611196565b610e42565b5b610695576040517f08c379a000000000000000000000000000000000000000000000000000000000815260040161068c906124cb565b60405180910390fd5b61069f838361119e565b505050565b80600960006006548152602001908152602001600020819055506006547f882d3b5a729a8bb95cf6c0083c99b42ecd9637123d4425bd7b768877fd8af8b0826040516106f091906124fa565b60405180910390a261070433600654611257565b60016006546107139190612544565b60068190555050565b61072d610727611196565b82611275565b61076c576040517f08c379a00000000000000000000000000000000000000000000000000000000081526004016107639061260c565b60405180910390fd5b61077783838361130a565b505050565b606060006107a8836040516020016107949190612668565b604051602081830303815290604052610f68565b90506040518060400160405280601a81526020017f646174613a696d6167652f7376672b786d6c3b6261736536342c000000000000815250816040516020016107f292919061267f565b604051602081830303815290604052506040518060400160405280601a81526020017f646174613a696d6167652f7376672b786d6c3b6261736536342c0000000000008152508160405160200161084a92919061267f565b604051602081830303815290604052915050919050565b61087c83838360405180602001604052806000815250610b57565b505050565b6000806002600084815260200190815260200160002060009054906101000a900473ffffffffffffffffffffffffffffffffffffffff169050600073ffffffffffffffffffffffffffffffffffffffff168173ffffffffffffffffffffffffffffffffffffffff16141561092a576040517f08c379a0000000000000000000000000000000000000000000000000000000008152600401610921906126ef565b60405180910390fd5b80915050919050565b6000600654905090565b60008073ffffffffffffffffffffffffffffffffffffffff168273ffffffffffffffffffffffffffffffffffffffff1614156109ae576040517f08c379a00000000000000000000000000000000000000000000000000000000081526004016109a590612781565b60405180910390fd5b600360008373ffffffffffffffffffffffffffffffffffffffff1673ffffffffffffffffffffffffffffffffffffffff168152602001908152602001600020549050919050565b606060088054610a0490612395565b80601f0160208091040260200160405190810160405280929190818152602001828054610a3090612395565b8015610a7d5780601f10610a5257610100808354040283529160200191610a7d565b820191906000526020600020905b815481529060010190602001808311610a6057829003601f168201915b5050505050905090565b606060018054610a9690612395565b80601f0160208091040260200160405190810160405280929190818152602001828054610ac290612395565b8015610b0f5780601f10610ae457610100808354040283529160200191610b0f565b820191906000526020600020905b815481529060010190602001808311610af257829003601f168201915b5050505050905090565b60007f0000000000000000000000000000000000000000000000000000000000000000905090565b610b53610b4c611196565b8383611571565b5050565b610b68610b62611196565b83611275565b610ba7576040517f08c379a0000000000000000000000000000000000000000000000000000000008152600401610b9e9061260c565b60405180910390fd5b610bb3848484846116de565b50505050565b6060610bc48261173a565b610c03576040517f08c379a0000000000000000000000000000000000000000000000000000000008152600401610bfa90612813565b60405180910390fd5b60007f000000000000000000000000000000000000000000000000000000000000000073ffffffffffffffffffffffffffffffffffffffff1663feaf968c6040518163ffffffff1660e01b815260040160a06040518083038186803b158015610c6b57600080fd5b505afa158015610c7f573d6000803e3d6000fd5b505050506040513d601f19601f82011682018060405250810190610ca3919061289f565b505050915050600060078054610cb890612395565b80601f0160208091040260200160405190810160405280929190818152602001828054610ce490612395565b8015610d315780601f10610d0657610100808354040283529160200191610d31565b820191906000526020600020905b815481529060010190602001808311610d1457829003601f168201915b5050505050905060096000858152602001908152602001600020548212610de05760088054610d5f90612395565b80601f0160208091040260200160405190810160405280929190818152602001828054610d8b90612395565b8015610dd85780601f10610dad57610100808354040283529160200191610dd8565b820191906000526020600020905b815481529060010190602001808311610dbb57829003601f168201915b505050505090505b610de86117a6565b610e19610df36104b4565b83604051602001610e05929190612ae2565b604051602081830303815290604052610f68565b604051602001610e2a92919061267f565b60405160208183030381529060405292505050919050565b6000600560008473ffffffffffffffffffffffffffffffffffffffff1673ffffffffffffffffffffffffffffffffffffffff16815260200190815260200160002060008373ffffffffffffffffffffffffffffffffffffffff1673ffffffffffffffffffffffffffffffffffffffff16815260200190815260200160002060009054906101000a900460ff16905092915050565b606060078054610ee590612395565b80601f0160208091040260200160405190810160405280929190818152602001828054610f1190612395565b8015610f5e5780601f10610f3357610100808354040283529160200191610f5e565b820191906000526020600020905b815481529060010190602001808311610f4157829003601f168201915b5050505050905090565b6060600082511415610f8b576040518060200160405280600081525090506110dc565b6000604051806060016040528060408152602001612ffe6040913990506000600360028551610fba9190612544565b610fc49190612b61565b6004610fd09190612b92565b90506000602082610fe19190612544565b67ffffffffffffffff811115610ffa57610ff9611f51565b5b6040519080825280601f01601f19166020018201604052801561102c5781602001600182028036833780820191505090505b509050818152600183018586518101602084015b8183101561109b576003830192508251603f8160121c168501518253600182019150603f81600c1c168501518253600182019150603f8160061c168501518253600182019150603f8116850151825360018201915050611040565b6003895106600181146110b557600281146110c5576110d0565b613d3d60f01b60028303526110d0565b603d60f81b60018303525b50505050508093505050505b919050565b60007f01ffc9a7000000000000000000000000000000000000000000000000000000007bffffffffffffffffffffffffffffffffffffffffffffffffffffffff1916827bffffffffffffffffffffffffffffffffffffffffffffffffffffffff1916149050919050565b6111548161173a565b611193576040517f08c379a000000000000000000000000000000000000000000000000000000000815260040161118a906126ef565b60405180910390fd5b50565b600033905090565b816004600083815260200190815260200160002060006101000a81548173ffffffffffffffffffffffffffffffffffffffff021916908373ffffffffffffffffffffffffffffffffffffffff160217905550808273ffffffffffffffffffffffffffffffffffffffff1661121183610881565b73ffffffffffffffffffffffffffffffffffffffff167f8c5be1e5ebec7d5bd14f71427d1e84f3dd0314c0f7b2291e5b200ac8c7c3b92560405160405180910390a45050565b6112718282604051806020016040528060008152506117e3565b5050565b60008061128183610881565b90508073ffffffffffffffffffffffffffffffffffffffff168473ffffffffffffffffffffffffffffffffffffffff1614806112c357506112c28185610e42565b5b8061130157508373ffffffffffffffffffffffffffffffffffffffff166112e984610546565b73ffffffffffffffffffffffffffffffffffffffff16145b91505092915050565b8273ffffffffffffffffffffffffffffffffffffffff1661132a82610881565b73ffffffffffffffffffffffffffffffffffffffff1614611380576040517f08c379a000000000000000000000000000000000000000000000000000000000815260040161137790612c5e565b60405180910390fd5b600073ffffffffffffffffffffffffffffffffffffffff168273ffffffffffffffffffffffffffffffffffffffff1614156113f0576040517f08c379a00000000000000000000000000000000000000000000000000000000081526004016113e790612cf0565b60405180910390fd5b6113fb83838361183e565b61140660008261119e565b6001600360008573ffffffffffffffffffffffffffffffffffffffff1673ffffffffffffffffffffffffffffffffffffffff16815260200190815260200160002060008282546114569190612d10565b925050819055506001600360008473ffffffffffffffffffffffffffffffffffffffff1673ffffffffffffffffffffffffffffffffffffffff16815260200190815260200160002060008282546114ad9190612544565b92505081905550816002600083815260200190815260200160002060006101000a81548173ffffffffffffffffffffffffffffffffffffffff021916908373ffffffffffffffffffffffffffffffffffffffff160217905550808273ffffffffffffffffffffffffffffffffffffffff168473ffffffffffffffffffffffffffffffffffffffff167fddf252ad1be2c89b69c2b068fc378daa952ba7f163c4a11628f55a4df523b3ef60405160405180910390a461156c838383611843565b505050565b8173ffffffffffffffffffffffffffffffffffffffff168373ffffffffffffffffffffffffffffffffffffffff1614156115e0576040517f08c379a00000000000000000000000000000000000000000000000000000000081526004016115d790612d90565b60405180910390fd5b80600560008573ffffffffffffffffffffffffffffffffffffffff1673ffffffffffffffffffffffffffffffffffffffff16815260200190815260200160002060008473ffffffffffffffffffffffffffffffffffffffff1673ffffffffffffffffffffffffffffffffffffffff16815260200190815260200160002060006101000a81548160ff0219169083151502179055508173ffffffffffffffffffffffffffffffffffffffff168373ffffffffffffffffffffffffffffffffffffffff167f17307eab39ab6107e8899845ad3d59bd9653f200f220920489ca2b5937696c31836040516116d19190611c90565b60405180910390a3505050565b6116e984848461130a565b6116f584848484611848565b611734576040517f08c379a000000000000000000000000000000000000000000000000000000000815260040161172b90612e22565b60405180910390fd5b50505050565b60008073ffffffffffffffffffffffffffffffffffffffff166002600084815260200190815260200160002060009054906101000a900473ffffffffffffffffffffffffffffffffffffffff1673ffffffffffffffffffffffffffffffffffffffff1614159050919050565b60606040518060400160405280601d81526020017f646174613a6170706c69636174696f6e2f6a736f6e3b6261736536342c000000815250905090565b6117ed83836119df565b6117fa6000848484611848565b611839576040517f08c379a000000000000000000000000000000000000000000000000000000000815260040161183090612e22565b60405180910390fd5b505050565b505050565b505050565b60006118698473ffffffffffffffffffffffffffffffffffffffff16611bb9565b156119d2578373ffffffffffffffffffffffffffffffffffffffff1663150b7a02611892611196565b8786866040518563ffffffff1660e01b81526004016118b49493929190612e97565b602060405180830381600087803b1580156118ce57600080fd5b505af19250505080156118ff57506040513d601f19601f820116820180604052508101906118fc9190612ef8565b60015b611982573d806000811461192f576040519150601f19603f3d011682016040523d82523d6000602084013e611934565b606091505b5060008151141561197a576040517f08c379a000000000000000000000000000000000000000000000000000000000815260040161197190612e22565b60405180910390fd5b805181602001fd5b63150b7a0260e01b7bffffffffffffffffffffffffffffffffffffffffffffffffffffffff1916817bffffffffffffffffffffffffffffffffffffffffffffffffffffffff1916149150506119d7565b600190505b949350505050565b600073ffffffffffffffffffffffffffffffffffffffff168273ffffffffffffffffffffffffffffffffffffffff161415611a4f576040517f08c379a0000000000000000000000000000000000000000000000000000000008152600401611a4690612f71565b60405180910390fd5b611a588161173a565b15611a98576040517f08c379a0000000000000000000000000000000000000000000000000000000008152600401611a8f90612fdd565b60405180910390fd5b611aa46000838361183e565b6001600360008473ffffffffffffffffffffffffffffffffffffffff1673ffffffffffffffffffffffffffffffffffffffff1681526020019081526020016000206000828254611af49190612544565b92505081905550816002600083815260200190815260200160002060006101000a81548173ffffffffffffffffffffffffffffffffffffffff021916908373ffffffffffffffffffffffffffffffffffffffff160217905550808273ffffffffffffffffffffffffffffffffffffffff16600073ffffffffffffffffffffffffffffffffffffffff167fddf252ad1be2c89b69c2b068fc378daa952ba7f163c4a11628f55a4df523b3ef60405160405180910390a4611bb560008383611843565b5050565b6000808273ffffffffffffffffffffffffffffffffffffffff163b119050919050565b6000604051905090565b600080fd5b600080fd5b60007fffffffff0000000000000000000000000000000000000000000000000000000082169050919050565b611c2581611bf0565b8114611c3057600080fd5b50565b600081359050611c4281611c1c565b92915050565b600060208284031215611c5e57611c5d611be6565b5b6000611c6c84828501611c33565b91505092915050565b60008115159050919050565b611c8a81611c75565b82525050565b6000602082019050611ca56000830184611c81565b92915050565b600081519050919050565b600082825260208201905092915050565b60005b83811015611ce5578082015181840152602081019050611cca565b83811115611cf4576000848401525b50505050565b6000601f19601f8301169050919050565b6000611d1682611cab565b611d208185611cb6565b9350611d30818560208601611cc7565b611d3981611cfa565b840191505092915050565b60006020820190508181036000830152611d5e8184611d0b565b905092915050565b6000819050919050565b611d7981611d66565b8114611d8457600080fd5b50565b600081359050611d9681611d70565b92915050565b600060208284031215611db257611db1611be6565b5b6000611dc084828501611d87565b91505092915050565b600073ffffffffffffffffffffffffffffffffffffffff82169050919050565b6000611df482611dc9565b9050919050565b611e0481611de9565b82525050565b6000602082019050611e1f6000830184611dfb565b92915050565b611e2e81611de9565b8114611e3957600080fd5b50565b600081359050611e4b81611e25565b92915050565b60008060408385031215611e6857611e67611be6565b5b6000611e7685828601611e3c565b9250506020611e8785828601611d87565b9150509250929050565b6000819050919050565b611ea481611e91565b8114611eaf57600080fd5b50565b600081359050611ec181611e9b565b92915050565b600060208284031215611edd57611edc611be6565b5b6000611eeb84828501611eb2565b91505092915050565b600080600060608486031215611f0d57611f0c611be6565b5b6000611f1b86828701611e3c565b9350506020611f2c86828701611e3c565b9250506040611f3d86828701611d87565b9150509250925092565b600080fd5b600080fd5b7f4e487b7100000000000000000000000000000000000000000000000000000000600052604160045260246000fd5b611f8982611cfa565b810181811067ffffffffffffffff82111715611fa857611fa7611f51565b5b80604052505050565b6000611fbb611bdc565b9050611fc78282611f80565b919050565b600067ffffffffffffffff821115611fe757611fe6611f51565b5b611ff082611cfa565b9050602081019050919050565b82818337600083830152505050565b600061201f61201a84611fcc565b611fb1565b90508281526020810184848401111561203b5761203a611f4c565b5b612046848285611ffd565b509392505050565b600082601f83011261206357612062611f47565b5b813561207384826020860161200c565b91505092915050565b60006020828403121561209257612091611be6565b5b600082013567ffffffffffffffff8111156120b0576120af611beb565b5b6120bc8482850161204e565b91505092915050565b6120ce81611d66565b82525050565b60006020820190506120e960008301846120c5565b92915050565b60006020828403121561210557612104611be6565b5b600061211384828501611e3c565b91505092915050565b6000819050919050565b600061214161213c61213784611dc9565b61211c565b611dc9565b9050919050565b600061215382612126565b9050919050565b600061216582612148565b9050919050565b6121758161215a565b82525050565b6000602082019050612190600083018461216c565b92915050565b61219f81611c75565b81146121aa57600080fd5b50565b6000813590506121bc81612196565b92915050565b600080604083850312156121d9576121d8611be6565b5b60006121e785828601611e3c565b92505060206121f8858286016121ad565b9150509250929050565b600067ffffffffffffffff82111561221d5761221c611f51565b5b61222682611cfa565b9050602081019050919050565b600061224661224184612202565b611fb1565b90508281526020810184848401111561226257612261611f4c565b5b61226d848285611ffd565b509392505050565b600082601f83011261228a57612289611f47565b5b813561229a848260208601612233565b91505092915050565b600080600080608085870312156122bd576122bc611be6565b5b60006122cb87828801611e3c565b94505060206122dc87828801611e3c565b93505060406122ed87828801611d87565b925050606085013567ffffffffffffffff81111561230e5761230d611beb565b5b61231a87828801612275565b91505092959194509250565b6000806040838503121561233d5761233c611be6565b5b600061234b85828601611e3c565b925050602061235c85828601611e3c565b9150509250929050565b7f4e487b7100000000000000000000000000000000000000000000000000000000600052602260045260246000fd5b600060028204905060018216806123ad57607f821691505b602082108114156123c1576123c0612366565b5b50919050565b7f4552433732313a20617070726f76616c20746f2063757272656e74206f776e6560008201527f7200000000000000000000000000000000000000000000000000000000000000602082015250565b6000612423602183611cb6565b915061242e826123c7565b604082019050919050565b6000602082019050818103600083015261245281612416565b9050919050565b7f4552433732313a20617070726f76652063616c6c6572206973206e6f7420746f60008201527f6b656e206f776e6572206e6f7220617070726f76656420666f7220616c6c0000602082015250565b60006124b5603e83611cb6565b91506124c082612459565b604082019050919050565b600060208201905081810360008301526124e4816124a8565b9050919050565b6124f481611e91565b82525050565b600060208201905061250f60008301846124eb565b92915050565b7f4e487b7100000000000000000000000000000000000000000000000000000000600052601160045260246000fd5b600061254f82611d66565b915061255a83611d66565b9250827fffffffffffffffffffffffffffffffffffffffffffffffffffffffffffffffff0382111561258f5761258e612515565b5b828201905092915050565b7f4552433732313a2063616c6c6572206973206e6f7420746f6b656e206f776e6560008201527f72206e6f7220617070726f766564000000000000000000000000000000000000602082015250565b60006125f6602e83611cb6565b91506126018261259a565b604082019050919050565b60006020820190508181036000830152612625816125e9565b9050919050565b600081905092915050565b600061264282611cab565b61264c818561262c565b935061265c818560208601611cc7565b80840191505092915050565b60006126748284612637565b915081905092915050565b600061268b8285612637565b91506126978284612637565b91508190509392505050565b7f4552433732313a20696e76616c696420746f6b656e2049440000000000000000600082015250565b60006126d9601883611cb6565b91506126e4826126a3565b602082019050919050565b60006020820190508181036000830152612708816126cc565b9050919050565b7f4552433732313a2061646472657373207a65726f206973206e6f74206120766160008201527f6c6964206f776e65720000000000000000000000000000000000000000000000602082015250565b600061276b602983611cb6565b91506127768261270f565b604082019050919050565b6000602082019050818103600083015261279a8161275e565b9050919050565b7f4552433732314d657461646174613a2055524920717565727920666f72206e6f60008201527f6e6578697374656e7420746f6b656e0000000000000000000000000000000000602082015250565b60006127fd602f83611cb6565b9150612808826127a1565b604082019050919050565b6000602082019050818103600083015261282c816127f0565b9050919050565b600069ffffffffffffffffffff82169050919050565b61285281612833565b811461285d57600080fd5b50565b60008151905061286f81612849565b92915050565b60008151905061288481611e9b565b92915050565b60008151905061289981611d70565b92915050565b600080600080600060a086880312156128bb576128ba611be6565b5b60006128c988828901612860565b95505060206128da88828901612875565b94505060406128eb8882890161288a565b93505060606128fc8882890161288a565b925050608061290d88828901612860565b9150509295509295909350565b7f7b226e616d65223a220000000000000000000000000000000000000000000000600082015250565b600061295060098361262c565b915061295b8261291a565b600982019050919050565b7f222c20226465736372697074696f6e223a22416e204e4654207468617420636860008201527f616e676573206261736564206f6e2074686520436861696e6c696e6b2046656560208201527f64222c2000000000000000000000000000000000000000000000000000000000604082015250565b60006129e860448361262c565b91506129f382612966565b604482019050919050565b7f2261747472696275746573223a205b7b2274726169745f74797065223a20226360008201527f6f6f6c6e657373222c202276616c7565223a203130307d5d2c2022696d61676560208201527f223a220000000000000000000000000000000000000000000000000000000000604082015250565b6000612a8060438361262c565b9150612a8b826129fe565b604382019050919050565b7f227d000000000000000000000000000000000000000000000000000000000000600082015250565b6000612acc60028361262c565b9150612ad782612a96565b600282019050919050565b6000612aed82612943565b9150612af98285612637565b9150612b04826129db565b9150612b0f82612a73565b9150612b1b8284612637565b9150612b2682612abf565b91508190509392505050565b7f4e487b7100000000000000000000000000000000000000000000000000000000600052601260045260246000fd5b6000612b6c82611d66565b9150612b7783611d66565b925082612b8757612b86612b32565b5b828204905092915050565b6000612b9d82611d66565b9150612ba883611d66565b9250817fffffffffffffffffffffffffffffffffffffffffffffffffffffffffffffffff0483118215151615612be157612be0612515565b5b828202905092915050565b7f4552433732313a207472616e736665722066726f6d20696e636f72726563742060008201527f6f776e6572000000000000000000000000000000000000000000000000000000602082015250565b6000612c48602583611cb6565b9150612c5382612bec565b604082019050919050565b60006020820190508181036000830152612c7781612c3b565b9050919050565b7f4552433732313a207472616e7366657220746f20746865207a65726f2061646460008201527f7265737300000000000000000000000000000000000000000000000000000000602082015250565b6000612cda602483611cb6565b9150612ce582612c7e565b604082019050919050565b60006020820190508181036000830152612d0981612ccd565b9050919050565b6000612d1b82611d66565b9150612d2683611d66565b925082821015612d3957612d38612515565b5b828203905092915050565b7f4552433732313a20617070726f766520746f2063616c6c657200000000000000600082015250565b6000612d7a601983611cb6565b9150612d8582612d44565b602082019050919050565b60006020820190508181036000830152612da981612d6d565b9050919050565b7f4552433732313a207472616e7366657220746f206e6f6e20455243373231526560008201527f63656976657220696d706c656d656e7465720000000000000000000000000000602082015250565b6000612e0c603283611cb6565b9150612e1782612db0565b604082019050919050565b60006020820190508181036000830152612e3b81612dff565b9050919050565b600081519050919050565b600082825260208201905092915050565b6000612e6982612e42565b612e738185612e4d565b9350612e83818560208601611cc7565b612e8c81611cfa565b840191505092915050565b6000608082019050612eac6000830187611dfb565b612eb96020830186611dfb565b612ec660408301856120c5565b8181036060830152612ed88184612e5e565b905095945050505050565b600081519050612ef281611c1c565b92915050565b600060208284031215612f0e57612f0d611be6565b5b6000612f1c84828501612ee3565b91505092915050565b7f4552433732313a206d696e7420746f20746865207a65726f2061646472657373600082015250565b6000612f5b602083611cb6565b9150612f6682612f25565b602082019050919050565b60006020820190508181036000830152612f8a81612f4e565b9050919050565b7f4552433732313a20746f6b656e20616c7265616479206d696e74656400000000600082015250565b6000612fc7601c83611cb6565b9150612fd282612f91565b602082019050919050565b60006020820190508181036000830152612ff681612fba565b905091905056fe4142434445464748494a4b4c4d4e4f505152535455565758595a6162636465666768696a6b6c6d6e6f707172737475767778797a303132333435363738392b2fa26469706673582212202766324747c58cc76aee2fca2124b3de9551c62360840db72e4231650a0022eb64736f6c634300080800334142434445464748494a4b4c4d4e4f505152535455565758595a6162636465666768696a6b6c6d6e6f707172737475767778797a303132333435363738392b2f",
  "linkReferences": {},
  "deployedLinkReferences": {}
}