{
  "_format": "hh-sol-artifact-1",
  "contractName": "RandomIpfsNft",
  "sourceName": "contracts/RandomIpfsNft.sol",
  "abi": [
    {
      "inputs": [
        {
          "internalType": "address",
          "name": "vrfCoordinatorV2",
          "type": "address"
        },
        {
          "internalType": "uint64",
          "name": "subscriptionId",
          "type": "uint64"
        },
        {
          "internalType": "bytes32",
          "name": "gasLane",
          "type": "bytes32"
        },
        {
          "internalType": "uint256",
          "name": "mintFee",
          "type": "uint256"
        },
        {
          "internalType": "uint32",
          "name": "callbackGasLimit",
          "type": "uint32"
        },
        {
          "internalType": "string[3]",
          "name": "dogTokenUris",
          "type": "string[3]"
        }
      ],
      "stateMutability": "nonpayable",
      "type": "constructor"
    },
    {
      "inputs": [],
      "name": "AlreadyInitialized",
      "type": "error"
    },
    {
      "inputs": [],
      "name": "NeedMoreETHSent",
      "type": "error"
    },
    {
      "inputs": [
        {
          "internalType": "address",
          "name": "have",
          "type": "address"
        },
        {
          "internalType": "address",
          "name": "want",
          "type": "address"
        }
      ],
      "name": "OnlyCoordinatorCanFulfill",
      "type": "error"
    },
    {
      "inputs": [],
      "name": "RangeOutOfBounds",
      "type": "error"
    },
    {
      "anonymous": false,
      "inputs": [
        {
          "indexed": true,
          "internalType": "address",
          "name": "owner",
          "type": "address"
        },
        {
          "indexed": true,
          "internalType": "address",
          "name": "approved",
          "type": "address"
        },
        {
          "indexed": true,
          "internalType": "uint256",
          "name": "tokenId",
          "type": "uint256"
        }
      ],
      "name": "Approval",
      "type": "event"
    },
    {
      "anonymous": false,
      "inputs": [
        {
          "indexed": true,
          "internalType": "address",
          "name": "owner",
          "type": "address"
        },
        {
          "indexed": true,
          "internalType": "address",
          "name": "operator",
          "type": "address"
        },
        {
          "indexed": false,
          "internalType": "bool",
          "name": "approved",
          "type": "bool"
        }
      ],
      "name": "ApprovalForAll",
      "type": "event"
    },
    {
      "anonymous": false,
      "inputs": [
        {
          "indexed": false,
          "internalType": "enum RandomIpfsNft.Breed",
          "name": "breed",
          "type": "uint8"
        },
        {
          "indexed": false,
          "internalType": "address",
          "name": "minter",
          "type": "address"
        }
      ],
      "name": "NftMinted",
      "type": "event"
    },
    {
      "anonymous": false,
      "inputs": [
        {
          "indexed": true,
          "internalType": "uint256",
          "name": "requestId",
          "type": "uint256"
        },
        {
          "indexed": false,
          "internalType": "address",
          "name": "requester",
          "type": "address"
        }
      ],
      "name": "NftRequested",
      "type": "event"
    },
    {
      "anonymous": false,
      "inputs": [
        {
          "indexed": true,
          "internalType": "address",
          "name": "previousOwner",
          "type": "address"
        },
        {
          "indexed": true,
          "internalType": "address",
          "name": "newOwner",
          "type": "address"
        }
      ],
      "name": "OwnershipTransferred",
      "type": "event"
    },
    {
      "anonymous": false,
      "inputs": [
        {
          "indexed": true,
          "internalType": "address",
          "name": "from",
          "type": "address"
        },
        {
          "indexed": true,
          "internalType": "address",
          "name": "to",
          "type": "address"
        },
        {
          "indexed": true,
          "internalType": "uint256",
          "name": "tokenId",
          "type": "uint256"
        }
      ],
      "name": "Transfer",
      "type": "event"
    },
    {
      "inputs": [
        {
          "internalType": "address",
          "name": "to",
          "type": "address"
        },
        {
          "internalType": "uint256",
          "name": "tokenId",
          "type": "uint256"
        }
      ],
      "name": "approve",
      "outputs": [],
      "stateMutability": "nonpayable",
      "type": "function"
    },
    {
      "inputs": [
        {
          "internalType": "address",
          "name": "owner",
          "type": "address"
        }
      ],
      "name": "balanceOf",
      "outputs": [
        {
          "internalType": "uint256",
          "name": "",
          "type": "uint256"
        }
      ],
      "stateMutability": "view",
      "type": "function"
    },
    {
      "inputs": [
        {
          "internalType": "uint256",
          "name": "tokenId",
          "type": "uint256"
        }
      ],
      "name": "getApproved",
      "outputs": [
        {
          "internalType": "address",
          "name": "",
          "type": "address"
        }
      ],
      "stateMutability": "view",
      "type": "function"
    },
    {
      "inputs": [
        {
          "internalType": "uint256",
          "name": "moddedRng",
          "type": "uint256"
        }
      ],
      "name": "getBreedFromModdedRng",
      "outputs": [
        {
          "internalType": "enum RandomIpfsNft.Breed",
          "name": "",
          "type": "uint8"
        }
      ],
      "stateMutability": "pure",
      "type": "function"
    },
    {
      "inputs": [],
      "name": "getChanceArray",
      "outputs": [
        {
          "internalType": "uint256[3]",
          "name": "",
          "type": "uint256[3]"
        }
      ],
      "stateMutability": "pure",
      "type": "function"
    },
    {
      "inputs": [
        {
          "internalType": "uint256",
          "name": "index",
          "type": "uint256"
        }
      ],
      "name": "getDogTokenUris",
      "outputs": [
        {
          "internalType": "string",
          "name": "",
          "type": "string"
        }
      ],
      "stateMutability": "view",
      "type": "function"
    },
    {
      "inputs": [],
      "name": "getInitialized",
      "outputs": [
        {
          "internalType": "bool",
          "name": "",
          "type": "bool"
        }
      ],
      "stateMutability": "view",
      "type": "function"
    },
    {
      "inputs": [],
      "name": "getMintFee",
      "outputs": [
        {
          "internalType": "uint256",
          "name": "",
          "type": "uint256"
        }
      ],
      "stateMutability": "view",
      "type": "function"
    },
    {
      "inputs": [],
      "name": "getTokenCounter",
      "outputs": [
        {
          "internalType": "uint256",
          "name": "",
          "type": "uint256"
        }
      ],
      "stateMutability": "view",
      "type": "function"
    },
    {
      "inputs": [
        {
          "internalType": "address",
          "name": "owner",
          "type": "address"
        },
        {
          "internalType": "address",
          "name": "operator",
          "type": "address"
        }
      ],
      "name": "isApprovedForAll",
      "outputs": [
        {
          "internalType": "bool",
          "name": "",
          "type": "bool"
        }
      ],
      "stateMutability": "view",
      "type": "function"
    },
    {
      "inputs": [],
      "name": "name",
      "outputs": [
        {
          "internalType": "string",
          "name": "",
          "type": "string"
        }
      ],
      "stateMutability": "view",
      "type": "function"
    },
    {
      "inputs": [],
      "name": "owner",
      "outputs": [
        {
          "internalType": "address",
          "name": "",
          "type": "address"
        }
      ],
      "stateMutability": "view",
      "type": "function"
    },
    {
      "inputs": [
        {
          "internalType": "uint256",
          "name": "tokenId",
          "type": "uint256"
        }
      ],
      "name": "ownerOf",
      "outputs": [
        {
          "internalType": "address",
          "name": "",
          "type": "address"
        }
      ],
      "stateMutability": "view",
      "type": "function"
    },
    {
      "inputs": [
        {
          "internalType": "uint256",
          "name": "requestId",
          "type": "uint256"
        },
        {
          "internalType": "uint256[]",
          "name": "randomWords",
          "type": "uint256[]"
        }
      ],
      "name": "rawFulfillRandomWords",
      "outputs": [],
      "stateMutability": "nonpayable",
      "type": "function"
    },
    {
      "inputs": [],
      "name": "renounceOwnership",
      "outputs": [],
      "stateMutability": "nonpayable",
      "type": "function"
    },
    {
      "inputs": [],
      "name": "requestNft",
      "outputs": [
        {
          "internalType": "uint256",
          "name": "requestId",
          "type": "uint256"
        }
      ],
      "stateMutability": "payable",
      "type": "function"
    },
    {
      "inputs": [
        {
          "internalType": "uint256",
          "name": "",
          "type": "uint256"
        }
      ],
      "name": "s_requestIdToSender",
      "outputs": [
        {
          "internalType": "address",
          "name": "",
          "type": "address"
        }
      ],
      "stateMutability": "view",
      "type": "function"
    },
    {
      "inputs": [],
      "name": "s_tokenCounter",
      "outputs": [
        {
          "internalType": "uint256",
          "name": "",
          "type": "uint256"
        }
      ],
      "stateMutability": "view",
      "type": "function"
    },
    {
      "inputs": [
        {
          "internalType": "address",
          "name": "from",
          "type": "address"
        },
        {
          "internalType": "address",
          "name": "to",
          "type": "address"
        },
        {
          "internalType": "uint256",
          "name": "tokenId",
          "type": "uint256"
        }
      ],
      "name": "safeTransferFrom",
      "outputs": [],
      "stateMutability": "nonpayable",
      "type": "function"
    },
    {
      "inputs": [
        {
          "internalType": "address",
          "name": "from",
          "type": "address"
        },
        {
          "internalType": "address",
          "name": "to",
          "type": "address"
        },
        {
          "internalType": "uint256",
          "name": "tokenId",
          "type": "uint256"
        },
        {
          "internalType": "bytes",
          "name": "data",
          "type": "bytes"
        }
      ],
      "name": "safeTransferFrom",
      "outputs": [],
      "stateMutability": "nonpayable",
      "type": "function"
    },
    {
      "inputs": [
        {
          "internalType": "address",
          "name": "operator",
          "type": "address"
        },
        {
          "internalType": "bool",
          "name": "approved",
          "type": "bool"
        }
      ],
      "name": "setApprovalForAll",
      "outputs": [],
      "stateMutability": "nonpayable",
      "type": "function"
    },
    {
      "inputs": [
        {
          "internalType": "bytes4",
          "name": "interfaceId",
          "type": "bytes4"
        }
      ],
      "name": "supportsInterface",
      "outputs": [
        {
          "internalType": "bool",
          "name": "",
          "type": "bool"
        }
      ],
      "stateMutability": "view",
      "type": "function"
    },
    {
      "inputs": [],
      "name": "symbol",
      "outputs": [
        {
          "internalType": "string",
          "name": "",
          "type": "string"
        }
      ],
      "stateMutability": "view",
      "type": "function"
    },
    {
      "inputs": [
        {
          "internalType": "uint256",
          "name": "tokenId",
          "type": "uint256"
        }
      ],
      "name": "tokenURI",
      "outputs": [
        {
          "internalType": "string",
          "name": "",
          "type": "string"
        }
      ],
      "stateMutability": "view",
      "type": "function"
    },
    {
      "inputs": [
        {
          "internalType": "address",
          "name": "from",
          "type": "address"
        },
        {
          "internalType": "address",
          "name": "to",
          "type": "address"
        },
        {
          "internalType": "uint256",
          "name": "tokenId",
          "type": "uint256"
        }
      ],
      "name": "transferFrom",
      "outputs": [],
      "stateMutability": "nonpayable",
      "type": "function"
    },
    {
      "inputs": [
        {
          "internalType": "address",
          "name": "newOwner",
          "type": "address"
        }
      ],
      "name": "transferOwnership",
      "outputs": [],
      "stateMutability": "nonpayable",
      "type": "function"
    },
    {
      "inputs": [],
      "name": "withdraw",
      "outputs": [],
      "stateMutability": "nonpayable",
      "type": "function"
    }
  ],
  "bytecode": "0x6101206040523480156200001257600080fd5b50604051620043f9380380620043f9833981810160405281019062000038919062000880565b856040518060400160405280600f81526020017f52616e646f6d2049504653204e465400000000000000000000000000000000008152506040518060400160405280600381526020017f52494e00000000000000000000000000000000000000000000000000000000008152508160009080519060200190620000bd92919062000313565b508060019080519060200190620000d692919062000313565b5050508073ffffffffffffffffffffffffffffffffffffffff1660808173ffffffffffffffffffffffffffffffffffffffff1660601b81525050506200013162000125620001cb60201b60201c565b620001d360201b60201c565b8573ffffffffffffffffffffffffffffffffffffffff1660a08173ffffffffffffffffffffffffffffffffffffffff1660601b815250508360e081815250508467ffffffffffffffff1660c08167ffffffffffffffff1660c01b81525050826008819055508163ffffffff166101008163ffffffff1660e01b81525050620001bf816200029960201b60201c565b505050505050620009a0565b600033905090565b6000600760009054906101000a900473ffffffffffffffffffffffffffffffffffffffff16905081600760006101000a81548173ffffffffffffffffffffffffffffffffffffffff021916908373ffffffffffffffffffffffffffffffffffffffff1602179055508173ffffffffffffffffffffffffffffffffffffffff168173ffffffffffffffffffffffffffffffffffffffff167f8be0079c531659141344cd1fd0a4f28419497f9722a3daafe3b4186f6b6457e060405160405180910390a35050565b600c60009054906101000a900460ff1615620002e1576040517f0dc149f000000000000000000000000000000000000000000000000000000000815260040160405180910390fd5b80600b906003620002f4929190620003a4565b506001600c60006101000a81548160ff02191690831515021790555050565b82805462000321906200096a565b90600052602060002090601f01602090048101928262000345576000855562000391565b82601f106200036057805160ff191683800117855562000391565b8280016001018555821562000391579182015b828111156200039057825182559160200191906001019062000373565b5b509050620003a091906200040b565b5090565b828054828255906000526020600020908101928215620003f8579160200282015b82811115620003f7578251829080519060200190620003e692919062000313565b5091602001919060010190620003c5565b5b5090506200040791906200042a565b5090565b5b80821115620004265760008160009055506001016200040c565b5090565b5b808211156200044e576000818162000444919062000452565b506001016200042b565b5090565b50805462000460906200096a565b6000825580601f1062000474575062000495565b601f0160209004906000526020600020908101906200049491906200040b565b5b50565b6000604051905090565b600080fd5b600080fd5b600073ffffffffffffffffffffffffffffffffffffffff82169050919050565b6000620004d982620004ac565b9050919050565b620004eb81620004cc565b8114620004f757600080fd5b50565b6000815190506200050b81620004e0565b92915050565b600067ffffffffffffffff82169050919050565b620005308162000511565b81146200053c57600080fd5b50565b600081519050620005508162000525565b92915050565b6000819050919050565b6200056b8162000556565b81146200057757600080fd5b50565b6000815190506200058b8162000560565b92915050565b6000819050919050565b620005a68162000591565b8114620005b257600080fd5b50565b600081519050620005c6816200059b565b92915050565b600063ffffffff82169050919050565b620005e781620005cc565b8114620005f357600080fd5b50565b6000815190506200060781620005dc565b92915050565b600080fd5b6000601f19601f8301169050919050565b7f4e487b7100000000000000000000000000000000000000000000000000000000600052604160045260246000fd5b6200065d8262000612565b810181811067ffffffffffffffff821117156200067f576200067e62000623565b5b80604052505050565b60006200069462000498565b9050620006a2828262000652565b919050565b600067ffffffffffffffff821115620006c557620006c462000623565b5b602082029050919050565b600080fd5b600080fd5b600067ffffffffffffffff821115620006f857620006f762000623565b5b620007038262000612565b9050602081019050919050565b60005b838110156200073057808201518184015260208101905062000713565b8381111562000740576000848401525b50505050565b60006200075d6200075784620006da565b62000688565b9050828152602081018484840111156200077c576200077b620006d5565b5b6200078984828562000710565b509392505050565b600082601f830112620007a957620007a86200060d565b5b8151620007bb84826020860162000746565b91505092915050565b6000620007db620007d584620006a7565b62000688565b90508060208402830185811115620007f857620007f7620006d0565b5b835b818110156200084657805167ffffffffffffffff8111156200082157620008206200060d565b5b80860162000830898262000791565b85526020850194505050602081019050620007fa565b5050509392505050565b600082601f8301126200086857620008676200060d565b5b600362000877848285620007c4565b91505092915050565b60008060008060008060c08789031215620008a0576200089f620004a2565b5b6000620008b089828a01620004fa565b9650506020620008c389828a016200053f565b9550506040620008d689828a016200057a565b9450506060620008e989828a01620005b5565b9350506080620008fc89828a01620005f6565b92505060a087015167ffffffffffffffff81111562000920576200091f620004a7565b5b6200092e89828a0162000850565b9150509295509295509295565b7f4e487b7100000000000000000000000000000000000000000000000000000000600052602260045260246000fd5b600060028204905060018216806200098357607f821691505b602082108114156200099a57620009996200093b565b5b50919050565b60805160601c60a05160601c60c05160c01c60e0516101005160e01c613a01620009f8600039600061105c015260006110180152600061103901526000610fdc01526000818161096301526109b70152613a016000f3fe60806040526004361061019c5760003560e01c806370a08231116100ec578063a51cccf31161008a578063c87b56dd11610064578063c87b56dd146105bb578063e985e9c5146105f8578063ee89dab414610635578063f2fde38b146106605761019c565b8063a51cccf314610537578063aa15249114610574578063b88d4fde146105925761019c565b80638da5cb5b116100c65780638da5cb5b1461047b57806395d89b41146104a6578063a22cb465146104d1578063a36f573b146104fa5761019c565b806370a08231146103fc578063715018a6146104395780637a5caab3146104505761019c565b806323b872dd1161015957806342842e0e1161013357806342842e0e146103405780635dacf5f4146103695780636352211e146103945780636e02007d146103d15761019c565b806323b872dd146102c35780633af25975146102ec5780633ccfd60b146103295761019c565b806301ffc9a7146101a157806306fdde03146101de578063081812fc14610209578063095ea7b3146102465780630b21a83b1461026f5780631fe543e31461029a575b600080fd5b3480156101ad57600080fd5b506101c860048036038101906101c39190612543565b610689565b6040516101d5919061258b565b60405180910390f35b3480156101ea57600080fd5b506101f361076b565b604051610200919061263f565b60405180910390f35b34801561021557600080fd5b50610230600480360381019061022b9190612697565b6107fd565b60405161023d9190612705565b60405180910390f35b34801561025257600080fd5b5061026d6004803603810190610268919061274c565b610843565b005b34801561027b57600080fd5b5061028461095b565b604051610291919061279b565b60405180910390f35b3480156102a657600080fd5b506102c160048036038101906102bc91906128fe565b610961565b005b3480156102cf57600080fd5b506102ea60048036038101906102e5919061295a565b610a21565b005b3480156102f857600080fd5b50610313600480360381019061030e9190612697565b610a81565b604051610320919061263f565b60405180910390f35b34801561033557600080fd5b5061033e610b31565b005b34801561034c57600080fd5b506103676004803603810190610362919061295a565b610bee565b005b34801561037557600080fd5b5061037e610c0e565b60405161038b9190612a58565b60405180910390f35b3480156103a057600080fd5b506103bb60048036038101906103b69190612697565b610c39565b6040516103c89190612705565b60405180910390f35b3480156103dd57600080fd5b506103e6610ceb565b6040516103f3919061279b565b60405180910390f35b34801561040857600080fd5b50610423600480360381019061041e9190612a73565b610cf5565b604051610430919061279b565b60405180910390f35b34801561044557600080fd5b5061044e610dad565b005b34801561045c57600080fd5b50610465610dc1565b604051610472919061279b565b60405180910390f35b34801561048757600080fd5b50610490610dcb565b60405161049d9190612705565b60405180910390f35b3480156104b257600080fd5b506104bb610df5565b6040516104c8919061263f565b60405180910390f35b3480156104dd57600080fd5b506104f860048036038101906104f39190612acc565b610e87565b005b34801561050657600080fd5b50610521600480360381019061051c9190612697565b610e9d565b60405161052e9190612705565b60405180910390f35b34801561054357600080fd5b5061055e60048036038101906105599190612697565b610ed0565b60405161056b9190612b83565b60405180910390f35b61057c610f9c565b604051610589919061279b565b60405180910390f35b34801561059e57600080fd5b506105b960048036038101906105b49190612c53565b61117e565b005b3480156105c757600080fd5b506105e260048036038101906105dd9190612697565b6111e0565b6040516105ef919061263f565b60405180910390f35b34801561060457600080fd5b5061061f600480360381019061061a9190612cd6565b6112f3565b60405161062c919061258b565b60405180910390f35b34801561064157600080fd5b5061064a611387565b604051610657919061258b565b60405180910390f35b34801561066c57600080fd5b5061068760048036038101906106829190612a73565b61139e565b005b60007f80ac58cd000000000000000000000000000000000000000000000000000000007bffffffffffffffffffffffffffffffffffffffffffffffffffffffff1916827bffffffffffffffffffffffffffffffffffffffffffffffffffffffff1916148061075457507f5b5e139f000000000000000000000000000000000000000000000000000000007bffffffffffffffffffffffffffffffffffffffffffffffffffffffff1916827bffffffffffffffffffffffffffffffffffffffffffffffffffffffff1916145b80610764575061076382611422565b5b9050919050565b60606000805461077a90612d45565b80601f01602080910402602001604051908101604052809291908181526020018280546107a690612d45565b80156107f35780601f106107c8576101008083540402835291602001916107f3565b820191906000526020600020905b8154815290600101906020018083116107d657829003601f168201915b5050505050905090565b60006108088261148c565b6004600083815260200190815260200160002060009054906101000a900473ffffffffffffffffffffffffffffffffffffffff169050919050565b600061084e82610c39565b90508073ffffffffffffffffffffffffffffffffffffffff168373ffffffffffffffffffffffffffffffffffffffff1614156108bf576040517f08c379a00000000000000000000000000000000000000000000000000000000081526004016108b690612de9565b60405180910390fd5b8073ffffffffffffffffffffffffffffffffffffffff166108de6114d7565b73ffffffffffffffffffffffffffffffffffffffff16148061090d575061090c816109076114d7565b6112f3565b5b61094c576040517f08c379a000000000000000000000000000000000000000000000000000000000815260040161094390612e7b565b60405180910390fd5b61095683836114df565b505050565b60095481565b7f000000000000000000000000000000000000000000000000000000000000000073ffffffffffffffffffffffffffffffffffffffff163373ffffffffffffffffffffffffffffffffffffffff1614610a1357337f00000000000000000000000000000000000000000000000000000000000000006040517f1cf993f4000000000000000000000000000000000000000000000000000000008152600401610a0a929190612e9b565b60405180910390fd5b610a1d8282611598565b5050565b610a32610a2c6114d7565b82611732565b610a71576040517f08c379a0000000000000000000000000000000000000000000000000000000008152600401610a6890612f36565b60405180910390fd5b610a7c8383836117c7565b505050565b6060600b8281548110610a9757610a96612f56565b5b906000526020600020018054610aac90612d45565b80601f0160208091040260200160405190810160405280929190818152602001828054610ad890612d45565b8015610b255780601f10610afa57610100808354040283529160200191610b25565b820191906000526020600020905b815481529060010190602001808311610b0857829003601f168201915b50505050509050919050565b610b39611a2e565b600047905060003373ffffffffffffffffffffffffffffffffffffffff1682604051610b6490612fb6565b60006040518083038185875af1925050503d8060008114610ba1576040519150601f19603f3d011682016040523d82523d6000602084013e610ba6565b606091505b5050905080610bea576040517f08c379a0000000000000000000000000000000000000000000000000000000008152600401610be190613017565b60405180910390fd5b5050565b610c098383836040518060200160405280600081525061117e565b505050565b610c16612412565b6040518060600160405280600a8152602001601e81526020016064815250905090565b6000806002600084815260200190815260200160002060009054906101000a900473ffffffffffffffffffffffffffffffffffffffff169050600073ffffffffffffffffffffffffffffffffffffffff168173ffffffffffffffffffffffffffffffffffffffff161415610ce2576040517f08c379a0000000000000000000000000000000000000000000000000000000008152600401610cd990613083565b60405180910390fd5b80915050919050565b6000600954905090565b60008073ffffffffffffffffffffffffffffffffffffffff168273ffffffffffffffffffffffffffffffffffffffff161415610d66576040517f08c379a0000000000000000000000000000000000000000000000000000000008152600401610d5d90613115565b60405180910390fd5b600360008373ffffffffffffffffffffffffffffffffffffffff1673ffffffffffffffffffffffffffffffffffffffff168152602001908152602001600020549050919050565b610db5611a2e565b610dbf6000611aac565b565b6000600854905090565b6000600760009054906101000a900473ffffffffffffffffffffffffffffffffffffffff16905090565b606060018054610e0490612d45565b80601f0160208091040260200160405190810160405280929190818152602001828054610e3090612d45565b8015610e7d5780601f10610e5257610100808354040283529160200191610e7d565b820191906000526020600020905b815481529060010190602001808311610e6057829003601f168201915b5050505050905090565b610e99610e926114d7565b8383611b72565b5050565b600d6020528060005260406000206000915054906101000a900473ffffffffffffffffffffffffffffffffffffffff1681565b600080600090506000610ee1610c0e565b905060005b6003811015610f6457828510158015610f155750818160038110610f0d57610f0c612f56565b5b602002015185105b15610f3757806002811115610f2d57610f2c612b0c565b5b9350505050610f97565b818160038110610f4a57610f49612f56565b5b602002015192508080610f5c90613164565b915050610ee6565b506040517f0655dc2500000000000000000000000000000000000000000000000000000000815260040160405180910390fd5b919050565b6000600854341015610fda576040517f2e53d2d300000000000000000000000000000000000000000000000000000000815260040160405180910390fd5b7f000000000000000000000000000000000000000000000000000000000000000073ffffffffffffffffffffffffffffffffffffffff16635d3b1d307f00000000000000000000000000000000000000000000000000000000000000007f000000000000000000000000000000000000000000000000000000000000000060037f000000000000000000000000000000000000000000000000000000000000000060016040518663ffffffff1660e01b815260040161109d959493929190613225565b602060405180830381600087803b1580156110b757600080fd5b505af11580156110cb573d6000803e3d6000fd5b505050506040513d601f19601f820116820180604052508101906110ef919061328d565b905033600d600083815260200190815260200160002060006101000a81548173ffffffffffffffffffffffffffffffffffffffff021916908373ffffffffffffffffffffffffffffffffffffffff160217905550807ff873236e6cc0ecc5be1a9a35c95ee5b8d1ac4cc7bfef0cc5060391d6cc98e26b336040516111739190612705565b60405180910390a290565b61118f6111896114d7565b83611732565b6111ce576040517f08c379a00000000000000000000000000000000000000000000000000000000081526004016111c590612f36565b60405180910390fd5b6111da84848484611cdf565b50505050565b60606111eb8261148c565b600060066000848152602001908152602001600020805461120b90612d45565b80601f016020809104026020016040519081016040528092919081815260200182805461123790612d45565b80156112845780601f1061125957610100808354040283529160200191611284565b820191906000526020600020905b81548152906001019060200180831161126757829003601f168201915b505050505090506000611295611d3b565b90506000815114156112ab5781925050506112ee565b6000825111156112e05780826040516020016112c89291906132f6565b604051602081830303815290604052925050506112ee565b6112e984611d52565b925050505b919050565b6000600560008473ffffffffffffffffffffffffffffffffffffffff1673ffffffffffffffffffffffffffffffffffffffff16815260200190815260200160002060008373ffffffffffffffffffffffffffffffffffffffff1673ffffffffffffffffffffffffffffffffffffffff16815260200190815260200160002060009054906101000a900460ff16905092915050565b6000600c60009054906101000a900460ff16905090565b6113a6611a2e565b600073ffffffffffffffffffffffffffffffffffffffff168173ffffffffffffffffffffffffffffffffffffffff161415611416576040517f08c379a000000000000000000000000000000000000000000000000000000000815260040161140d9061338c565b60405180910390fd5b61141f81611aac565b50565b60007f01ffc9a7000000000000000000000000000000000000000000000000000000007bffffffffffffffffffffffffffffffffffffffffffffffffffffffff1916827bffffffffffffffffffffffffffffffffffffffffffffffffffffffff1916149050919050565b61149581611dba565b6114d4576040517f08c379a00000000000000000000000000000000000000000000000000000000081526004016114cb90613083565b60405180910390fd5b50565b600033905090565b816004600083815260200190815260200160002060006101000a81548173ffffffffffffffffffffffffffffffffffffffff021916908373ffffffffffffffffffffffffffffffffffffffff160217905550808273ffffffffffffffffffffffffffffffffffffffff1661155283610c39565b73ffffffffffffffffffffffffffffffffffffffff167f8c5be1e5ebec7d5bd14f71427d1e84f3dd0314c0f7b2291e5b200ac8c7c3b92560405160405180910390a45050565b6000600d600084815260200190815260200160002060009054906101000a900473ffffffffffffffffffffffffffffffffffffffff1690506000600954905060016009546115e691906133ac565b600981905550600060648460008151811061160457611603612f56565b5b60200260200101516116169190613431565b9050600061162382610ed0565b905061162f8484611e26565b6116f183600b83600281111561164857611647612b0c565b5b8154811061165957611658612f56565b5b90600052602060002001805461166e90612d45565b80601f016020809104026020016040519081016040528092919081815260200182805461169a90612d45565b80156116e75780601f106116bc576101008083540402835291602001916116e7565b820191906000526020600020905b8154815290600101906020018083116116ca57829003601f168201915b5050505050611e44565b7f8a269f26b688e110e9cbd887d163dab35cae678fa353a0292de532c0cac1ecdc8185604051611722929190613462565b60405180910390a1505050505050565b60008061173e83610c39565b90508073ffffffffffffffffffffffffffffffffffffffff168473ffffffffffffffffffffffffffffffffffffffff161480611780575061177f81856112f3565b5b806117be57508373ffffffffffffffffffffffffffffffffffffffff166117a6846107fd565b73ffffffffffffffffffffffffffffffffffffffff16145b91505092915050565b8273ffffffffffffffffffffffffffffffffffffffff166117e782610c39565b73ffffffffffffffffffffffffffffffffffffffff161461183d576040517f08c379a0000000000000000000000000000000000000000000000000000000008152600401611834906134fd565b60405180910390fd5b600073ffffffffffffffffffffffffffffffffffffffff168273ffffffffffffffffffffffffffffffffffffffff1614156118ad576040517f08c379a00000000000000000000000000000000000000000000000000000000081526004016118a49061358f565b60405180910390fd5b6118b8838383611eb8565b6118c36000826114df565b6001600360008573ffffffffffffffffffffffffffffffffffffffff1673ffffffffffffffffffffffffffffffffffffffff168152602001908152602001600020600082825461191391906135af565b925050819055506001600360008473ffffffffffffffffffffffffffffffffffffffff1673ffffffffffffffffffffffffffffffffffffffff168152602001908152602001600020600082825461196a91906133ac565b92505081905550816002600083815260200190815260200160002060006101000a81548173ffffffffffffffffffffffffffffffffffffffff021916908373ffffffffffffffffffffffffffffffffffffffff160217905550808273ffffffffffffffffffffffffffffffffffffffff168473ffffffffffffffffffffffffffffffffffffffff167fddf252ad1be2c89b69c2b068fc378daa952ba7f163c4a11628f55a4df523b3ef60405160405180910390a4611a29838383611ebd565b505050565b611a366114d7565b73ffffffffffffffffffffffffffffffffffffffff16611a54610dcb565b73ffffffffffffffffffffffffffffffffffffffff1614611aaa576040517f08c379a0000000000000000000000000000000000000000000000000000000008152600401611aa19061362f565b60405180910390fd5b565b6000600760009054906101000a900473ffffffffffffffffffffffffffffffffffffffff16905081600760006101000a81548173ffffffffffffffffffffffffffffffffffffffff021916908373ffffffffffffffffffffffffffffffffffffffff1602179055508173ffffffffffffffffffffffffffffffffffffffff168173ffffffffffffffffffffffffffffffffffffffff167f8be0079c531659141344cd1fd0a4f28419497f9722a3daafe3b4186f6b6457e060405160405180910390a35050565b8173ffffffffffffffffffffffffffffffffffffffff168373ffffffffffffffffffffffffffffffffffffffff161415611be1576040517f08c379a0000000000000000000000000000000000000000000000000000000008152600401611bd89061369b565b60405180910390fd5b80600560008573ffffffffffffffffffffffffffffffffffffffff1673ffffffffffffffffffffffffffffffffffffffff16815260200190815260200160002060008473ffffffffffffffffffffffffffffffffffffffff1673ffffffffffffffffffffffffffffffffffffffff16815260200190815260200160002060006101000a81548160ff0219169083151502179055508173ffffffffffffffffffffffffffffffffffffffff168373ffffffffffffffffffffffffffffffffffffffff167f17307eab39ab6107e8899845ad3d59bd9653f200f220920489ca2b5937696c3183604051611cd2919061258b565b60405180910390a3505050565b611cea8484846117c7565b611cf684848484611ec2565b611d35576040517f08c379a0000000000000000000000000000000000000000000000000000000008152600401611d2c9061372d565b60405180910390fd5b50505050565b606060405180602001604052806000815250905090565b6060611d5d8261148c565b6000611d67611d3b565b90506000815111611d875760405180602001604052806000815250611db2565b80611d9184612059565b604051602001611da29291906132f6565b6040516020818303038152906040525b915050919050565b60008073ffffffffffffffffffffffffffffffffffffffff166002600084815260200190815260200160002060009054906101000a900473ffffffffffffffffffffffffffffffffffffffff1673ffffffffffffffffffffffffffffffffffffffff1614159050919050565b611e408282604051806020016040528060008152506121ba565b5050565b611e4d82611dba565b611e8c576040517f08c379a0000000000000000000000000000000000000000000000000000000008152600401611e83906137bf565b60405180910390fd5b80600660008481526020019081526020016000209080519060200190611eb3929190612434565b505050565b505050565b505050565b6000611ee38473ffffffffffffffffffffffffffffffffffffffff16612215565b1561204c578373ffffffffffffffffffffffffffffffffffffffff1663150b7a02611f0c6114d7565b8786866040518563ffffffff1660e01b8152600401611f2e9493929190613834565b602060405180830381600087803b158015611f4857600080fd5b505af1925050508015611f7957506040513d601f19601f82011682018060405250810190611f769190613895565b60015b611ffc573d8060008114611fa9576040519150601f19603f3d011682016040523d82523d6000602084013e611fae565b606091505b50600081511415611ff4576040517f08c379a0000000000000000000000000000000000000000000000000000000008152600401611feb9061372d565b60405180910390fd5b805181602001fd5b63150b7a0260e01b7bffffffffffffffffffffffffffffffffffffffffffffffffffffffff1916817bffffffffffffffffffffffffffffffffffffffffffffffffffffffff191614915050612051565b600190505b949350505050565b606060008214156120a1576040518060400160405280600181526020017f300000000000000000000000000000000000000000000000000000000000000081525090506121b5565b600082905060005b600082146120d35780806120bc90613164565b915050600a826120cc91906138c2565b91506120a9565b60008167ffffffffffffffff8111156120ef576120ee6127bb565b5b6040519080825280601f01601f1916602001820160405280156121215781602001600182028036833780820191505090505b5090505b600085146121ae5760018261213a91906135af565b9150600a856121499190613431565b603061215591906133ac565b60f81b81838151811061216b5761216a612f56565b5b60200101907effffffffffffffffffffffffffffffffffffffffffffffffffffffffffffff1916908160001a905350600a856121a791906138c2565b9450612125565b8093505050505b919050565b6121c48383612238565b6121d16000848484611ec2565b612210576040517f08c379a00000000000000000000000000000000000000000000000000000000081526004016122079061372d565b60405180910390fd5b505050565b6000808273ffffffffffffffffffffffffffffffffffffffff163b119050919050565b600073ffffffffffffffffffffffffffffffffffffffff168273ffffffffffffffffffffffffffffffffffffffff1614156122a8576040517f08c379a000000000000000000000000000000000000000000000000000000000815260040161229f9061393f565b60405180910390fd5b6122b181611dba565b156122f1576040517f08c379a00000000000000000000000000000000000000000000000000000000081526004016122e8906139ab565b60405180910390fd5b6122fd60008383611eb8565b6001600360008473ffffffffffffffffffffffffffffffffffffffff1673ffffffffffffffffffffffffffffffffffffffff168152602001908152602001600020600082825461234d91906133ac565b92505081905550816002600083815260200190815260200160002060006101000a81548173ffffffffffffffffffffffffffffffffffffffff021916908373ffffffffffffffffffffffffffffffffffffffff160217905550808273ffffffffffffffffffffffffffffffffffffffff16600073ffffffffffffffffffffffffffffffffffffffff167fddf252ad1be2c89b69c2b068fc378daa952ba7f163c4a11628f55a4df523b3ef60405160405180910390a461240e60008383611ebd565b5050565b6040518060600160405280600390602082028036833780820191505090505090565b82805461244090612d45565b90600052602060002090601f01602090048101928261246257600085556124a9565b82601f1061247b57805160ff19168380011785556124a9565b828001600101855582156124a9579182015b828111156124a857825182559160200191906001019061248d565b5b5090506124b691906124ba565b5090565b5b808211156124d35760008160009055506001016124bb565b5090565b6000604051905090565b600080fd5b600080fd5b60007fffffffff0000000000000000000000000000000000000000000000000000000082169050919050565b612520816124eb565b811461252b57600080fd5b50565b60008135905061253d81612517565b92915050565b600060208284031215612559576125586124e1565b5b60006125678482850161252e565b91505092915050565b60008115159050919050565b61258581612570565b82525050565b60006020820190506125a0600083018461257c565b92915050565b600081519050919050565b600082825260208201905092915050565b60005b838110156125e05780820151818401526020810190506125c5565b838111156125ef576000848401525b50505050565b6000601f19601f8301169050919050565b6000612611826125a6565b61261b81856125b1565b935061262b8185602086016125c2565b612634816125f5565b840191505092915050565b600060208201905081810360008301526126598184612606565b905092915050565b6000819050919050565b61267481612661565b811461267f57600080fd5b50565b6000813590506126918161266b565b92915050565b6000602082840312156126ad576126ac6124e1565b5b60006126bb84828501612682565b91505092915050565b600073ffffffffffffffffffffffffffffffffffffffff82169050919050565b60006126ef826126c4565b9050919050565b6126ff816126e4565b82525050565b600060208201905061271a60008301846126f6565b92915050565b612729816126e4565b811461273457600080fd5b50565b60008135905061274681612720565b92915050565b60008060408385031215612763576127626124e1565b5b600061277185828601612737565b925050602061278285828601612682565b9150509250929050565b61279581612661565b82525050565b60006020820190506127b0600083018461278c565b92915050565b600080fd5b7f4e487b7100000000000000000000000000000000000000000000000000000000600052604160045260246000fd5b6127f3826125f5565b810181811067ffffffffffffffff82111715612812576128116127bb565b5b80604052505050565b60006128256124d7565b905061283182826127ea565b919050565b600067ffffffffffffffff821115612851576128506127bb565b5b602082029050602081019050919050565b600080fd5b600061287a61287584612836565b61281b565b9050808382526020820190506020840283018581111561289d5761289c612862565b5b835b818110156128c657806128b28882612682565b84526020840193505060208101905061289f565b5050509392505050565b600082601f8301126128e5576128e46127b6565b5b81356128f5848260208601612867565b91505092915050565b60008060408385031215612915576129146124e1565b5b600061292385828601612682565b925050602083013567ffffffffffffffff811115612944576129436124e6565b5b612950858286016128d0565b9150509250929050565b600080600060608486031215612973576129726124e1565b5b600061298186828701612737565b935050602061299286828701612737565b92505060406129a386828701612682565b9150509250925092565b600060039050919050565b600081905092915050565b6000819050919050565b6129d681612661565b82525050565b60006129e883836129cd565b60208301905092915050565b6000602082019050919050565b612a0a816129ad565b612a1481846129b8565b9250612a1f826129c3565b8060005b83811015612a50578151612a3787826129dc565b9650612a42836129f4565b925050600181019050612a23565b505050505050565b6000606082019050612a6d6000830184612a01565b92915050565b600060208284031215612a8957612a886124e1565b5b6000612a9784828501612737565b91505092915050565b612aa981612570565b8114612ab457600080fd5b50565b600081359050612ac681612aa0565b92915050565b60008060408385031215612ae357612ae26124e1565b5b6000612af185828601612737565b9250506020612b0285828601612ab7565b9150509250929050565b7f4e487b7100000000000000000000000000000000000000000000000000000000600052602160045260246000fd5b60038110612b4c57612b4b612b0c565b5b50565b6000819050612b5d82612b3b565b919050565b6000612b6d82612b4f565b9050919050565b612b7d81612b62565b82525050565b6000602082019050612b986000830184612b74565b92915050565b600080fd5b600067ffffffffffffffff821115612bbe57612bbd6127bb565b5b612bc7826125f5565b9050602081019050919050565b82818337600083830152505050565b6000612bf6612bf184612ba3565b61281b565b905082815260208101848484011115612c1257612c11612b9e565b5b612c1d848285612bd4565b509392505050565b600082601f830112612c3a57612c396127b6565b5b8135612c4a848260208601612be3565b91505092915050565b60008060008060808587031215612c6d57612c6c6124e1565b5b6000612c7b87828801612737565b9450506020612c8c87828801612737565b9350506040612c9d87828801612682565b925050606085013567ffffffffffffffff811115612cbe57612cbd6124e6565b5b612cca87828801612c25565b91505092959194509250565b60008060408385031215612ced57612cec6124e1565b5b6000612cfb85828601612737565b9250506020612d0c85828601612737565b9150509250929050565b7f4e487b7100000000000000000000000000000000000000000000000000000000600052602260045260246000fd5b60006002820490506001821680612d5d57607f821691505b60208210811415612d7157612d70612d16565b5b50919050565b7f4552433732313a20617070726f76616c20746f2063757272656e74206f776e6560008201527f7200000000000000000000000000000000000000000000000000000000000000602082015250565b6000612dd36021836125b1565b9150612dde82612d77565b604082019050919050565b60006020820190508181036000830152612e0281612dc6565b9050919050565b7f4552433732313a20617070726f76652063616c6c6572206973206e6f7420746f60008201527f6b656e206f776e6572206e6f7220617070726f76656420666f7220616c6c0000602082015250565b6000612e65603e836125b1565b9150612e7082612e09565b604082019050919050565b60006020820190508181036000830152612e9481612e58565b9050919050565b6000604082019050612eb060008301856126f6565b612ebd60208301846126f6565b9392505050565b7f4552433732313a2063616c6c6572206973206e6f7420746f6b656e206f776e6560008201527f72206e6f7220617070726f766564000000000000000000000000000000000000602082015250565b6000612f20602e836125b1565b9150612f2b82612ec4565b604082019050919050565b60006020820190508181036000830152612f4f81612f13565b9050919050565b7f4e487b7100000000000000000000000000000000000000000000000000000000600052603260045260246000fd5b600081905092915050565b50565b6000612fa0600083612f85565b9150612fab82612f90565b600082019050919050565b6000612fc182612f93565b9150819050919050565b7f5472616e73666572206661696c65640000000000000000000000000000000000600082015250565b6000613001600f836125b1565b915061300c82612fcb565b602082019050919050565b6000602082019050818103600083015261303081612ff4565b9050919050565b7f4552433732313a20696e76616c696420746f6b656e2049440000000000000000600082015250565b600061306d6018836125b1565b915061307882613037565b602082019050919050565b6000602082019050818103600083015261309c81613060565b9050919050565b7f4552433732313a2061646472657373207a65726f206973206e6f74206120766160008201527f6c6964206f776e65720000000000000000000000000000000000000000000000602082015250565b60006130ff6029836125b1565b915061310a826130a3565b604082019050919050565b6000602082019050818103600083015261312e816130f2565b9050919050565b7f4e487b7100000000000000000000000000000000000000000000000000000000600052601160045260246000fd5b600061316f82612661565b91507fffffffffffffffffffffffffffffffffffffffffffffffffffffffffffffffff8214156131a2576131a1613135565b5b600182019050919050565b6000819050919050565b6131c0816131ad565b82525050565b600067ffffffffffffffff82169050919050565b6131e3816131c6565b82525050565b600061ffff82169050919050565b613200816131e9565b82525050565b600063ffffffff82169050919050565b61321f81613206565b82525050565b600060a08201905061323a60008301886131b7565b61324760208301876131da565b61325460408301866131f7565b6132616060830185613216565b61326e6080830184613216565b9695505050505050565b6000815190506132878161266b565b92915050565b6000602082840312156132a3576132a26124e1565b5b60006132b184828501613278565b91505092915050565b600081905092915050565b60006132d0826125a6565b6132da81856132ba565b93506132ea8185602086016125c2565b80840191505092915050565b600061330282856132c5565b915061330e82846132c5565b91508190509392505050565b7f4f776e61626c653a206e6577206f776e657220697320746865207a65726f206160008201527f6464726573730000000000000000000000000000000000000000000000000000602082015250565b60006133766026836125b1565b91506133818261331a565b604082019050919050565b600060208201905081810360008301526133a581613369565b9050919050565b60006133b782612661565b91506133c283612661565b9250827fffffffffffffffffffffffffffffffffffffffffffffffffffffffffffffffff038211156133f7576133f6613135565b5b828201905092915050565b7f4e487b7100000000000000000000000000000000000000000000000000000000600052601260045260246000fd5b600061343c82612661565b915061344783612661565b92508261345757613456613402565b5b828206905092915050565b60006040820190506134776000830185612b74565b61348460208301846126f6565b9392505050565b7f4552433732313a207472616e736665722066726f6d20696e636f72726563742060008201527f6f776e6572000000000000000000000000000000000000000000000000000000602082015250565b60006134e76025836125b1565b91506134f28261348b565b604082019050919050565b60006020820190508181036000830152613516816134da565b9050919050565b7f4552433732313a207472616e7366657220746f20746865207a65726f2061646460008201527f7265737300000000000000000000000000000000000000000000000000000000602082015250565b60006135796024836125b1565b91506135848261351d565b604082019050919050565b600060208201905081810360008301526135a88161356c565b9050919050565b60006135ba82612661565b91506135c583612661565b9250828210156135d8576135d7613135565b5b828203905092915050565b7f4f776e61626c653a2063616c6c6572206973206e6f7420746865206f776e6572600082015250565b60006136196020836125b1565b9150613624826135e3565b602082019050919050565b600060208201905081810360008301526136488161360c565b9050919050565b7f4552433732313a20617070726f766520746f2063616c6c657200000000000000600082015250565b60006136856019836125b1565b91506136908261364f565b602082019050919050565b600060208201905081810360008301526136b481613678565b9050919050565b7f4552433732313a207472616e7366657220746f206e6f6e20455243373231526560008201527f63656976657220696d706c656d656e7465720000000000000000000000000000602082015250565b60006137176032836125b1565b9150613722826136bb565b604082019050919050565b600060208201905081810360008301526137468161370a565b9050919050565b7f45524337323155524953746f726167653a2055524920736574206f66206e6f6e60008201527f6578697374656e7420746f6b656e000000000000000000000000000000000000602082015250565b60006137a9602e836125b1565b91506137b48261374d565b604082019050919050565b600060208201905081810360008301526137d88161379c565b9050919050565b600081519050919050565b600082825260208201905092915050565b6000613806826137df565b61381081856137ea565b93506138208185602086016125c2565b613829816125f5565b840191505092915050565b600060808201905061384960008301876126f6565b61385660208301866126f6565b613863604083018561278c565b818103606083015261387581846137fb565b905095945050505050565b60008151905061388f81612517565b92915050565b6000602082840312156138ab576138aa6124e1565b5b60006138b984828501613880565b91505092915050565b60006138cd82612661565b91506138d883612661565b9250826138e8576138e7613402565b5b828204905092915050565b7f4552433732313a206d696e7420746f20746865207a65726f2061646472657373600082015250565b60006139296020836125b1565b9150613934826138f3565b602082019050919050565b600060208201905081810360008301526139588161391c565b9050919050565b7f4552433732313a20746f6b656e20616c7265616479206d696e74656400000000600082015250565b6000613995601c836125b1565b91506139a08261395f565b602082019050919050565b600060208201905081810360008301526139c481613988565b905091905056fea2646970667358221220861823ac75bf72329672e1bf22e65829659e9a26a55c97682a7c87fd0294b54464736f6c63430008080033",
  "linkReferences": {},
  "deployedLinkReferences": {}
}